:200000000C940F080C9437080C9437080C9437080C9437080C9437080C9437080C94370810
:200020000C9437080C9437080C9437080C9437080C9437080C94D93F0C9437080C943708EF
:200040000C9437080C9478490C941A500C9437080C9454260C9437080C9437080C943708C0
:200060000C9437080C9437080C9437080C9437080C9437080C9437080C943708084AD73B03
:200080003BCE016E84BCBFFDC12F3D6C74319ABD56833DDA3D00C77F11BED9E4BB4C3E9182
:2000A0006BAAAABE000000803F05A84CCDB2D44EB93836A9020C50B9918688083CA6AAAAA6
:2000C0002ABE000000803F4572726F723A005072696E7465722073746F7070656420646549
:2000E0007520746F206572726F72732E2046697820746865206572726F7220616E642075C3
:200100007365204D39393920746F2072657374617274212E202854656D7065726174757207
:20012000652069732072657365742E20536574206974206265666F72652072657374617260
:2001400074696E6729005072696E7465722068616C7465642E206B696C6C28292063616CB3
:200160006C6564202121006F6B00526573656E643A006563686F3A002200556E6B6E6F77F6
:200180006E20636F6D6D616E643A22007A5F6D696E3A00795F6D696E3A00785F6D696E3A94
:2001A000005A3A00593A0020436F756E7420583A00453A005A3A00593A00583A0046495224
:2001C0004D574152455F4E414D453A4D61726C696E2056313B20537072696E7465722F6797
:2001E00072626C206D617368757020666F722067656E36204649524D574152455F55524C4B
:200200003A687474703A2F2F7777772E6D656E64656C2D70617274732E636F6D2050524F6F
:20022000544F434F4C5F56455253494F4E3A312E30204D414348494E455F545950453A4DB2
:20024000656E64656C2045585452554445525F434F554E543A310A0020573A0020453A0056
:20026000543A0020403A00202F006F6B20543A005072696E7465722073746F70706564205C
:2002800064657520746F206572726F72732E2046697820746865206572726F7220616E64ED
:2002A00020757365204D39393920746F2072657374617274212E202854656D7065726174B8
:2002C0007572652069732072657365742E20536574206974206265666F72652072657374AB
:2002E000617274696E6729006F6B004E6F204C696E65204E756D6265722077697468206329
:200300006865636B73756D2C204C617374204C696E653A004E6F20436865636B73756D20FB
:2003200077697468206C696E65206E756D6265722C204C617374204C696E653A006368659E
:20034000636B73756D206D69736D617463682C204C617374204C696E653A004C696E65209A
:200360004E756D626572206973206E6F74204C617374204C696E65204E756D6265722B3166
:200380002C204C617374204C696E653A002020506C616E6E6572427566666572427974659D
:2003A000733A20002046726565204D656D6F72793A2000336473747566666D616B6572000C
:2003C000207C20417574686F723A2000323031322D30392D323600204C61737420557064A7
:2003E000617465643A2000312E302E3020524332004D61726C696E200020536F667477611A
:20040000726520526573657400205761746368646F67205265736574002042726F776E2026
:200420006F7574205265736574002045787465726E616C20526573657400506F7765725559
:2004400070007374617274002200656E717565696E672022006563686F3A0020746F6F20D3
:200460006C6F6E6720657874727573696F6E2070726576656E7465640020636F6C64206587
:200480007874727573696F6E2070726576656E7465640024F404D9201BC40C5C0E9804C419
:2004A000095F0265077101F405F900FB04B30048048700C10369005803550003034500BE97
:2004C000023A008402310053022A002902250004022000E4011C00C8011900AF01170098F2
:2004E00001140084011300710110006101100051010E0043010D0036010B002B010B002011
:20050000010B00150109000C01090003010800FB000800F3000800EB000700E4000600DED6
:20052000000600D8000600D2000600CC000500C7000500C2000500BD000400B9000400B568
:20054000000400B1000400AD000400A9000400A5000300A20003009F0004009B000300985E
:200560000003009500020093000300900003008D0002008B00030088000200860002008405
:20058000000300810002007F0002007D0002007B0002007900020077000100760002007479
:2005A00000020072000100710002006F0002006D0001006C0002006A0001006900020067C9
:2005C0000001006600010065000100640002006200010061000100600001005F0002005D03
:2005E0000001005C0001005B0001005A00010059000100580001005700010056000100552F
:200600000001005400010053000000530001005200010051000100500001004F0001004E49
:200620000000004E0001004D0001004C0001004B0000004B0001004A00010049000100485C
:20064000000000480001004700010046000000460001004500000045000100440001004369
:200660000000004300010042000000420001004100000041000100400001003F0000003F6F
:200680000001003E0000003E0001003D0000003D0001003C0000003C0000003C0001003B71
:2006A0000000003B0001003A0000003A00010039000000390001003800000038000000386E
:2006C000000100370000003700010036000000360000003600010035000000350000003568
:2006E00000010034000000340000003400010033000000330000003300010032000000325E
:20070000000000320001003100000031000000310001003000000030000000300001002F52
:200720000000002F0000002F0000002F0001002E0000002E0000002E0001002D0000002D46
:200740000000002D0000002D0001002C0000002C0000002C0000002C0001002B0000002B37
:200760000000002B0000002B0001002A0000002A0000002A0000002A000100290000002927
:20078000000000290000002900000029000100280000002800000028000000280000002815
:2007A000000100270000002700000027000000270000002700010026000000260000002602
:2007C0000000002600000026000100250000002500000025000000250000002500000025EE
:2007E0000001002400000024000000240000002400000024000100230000002300000023DA
:200800000000002300000023000000230000002300010022000000220000002200000022C3
:200820000000002200000022000100210000002100000021000000210000002100000021AD
:20084000000000210001002000000020000000200000002000000020000000200000002096
:20086000000000200001001F0000001F0000001F0000001F0000001F0000001F0000001F7E
:200880000001001E0000001E0000001E0000001E00000024F4D43050C38E20C2A2401782C5
:2008A0008B7011127A910D816CD90AA861E108C7586607615143061E4B5D05C145A7041A23
:2008C000411104093D9803713931034036DB0265339102D4305402802E1D02632CEE01756B
:2008E0002AC501B028A001102781018F2564012B244B01E0223401AC211F018D200D0180C3
:200900001FFC00841EED00971DDF00B81CD200E61BC600201BBC00641AB200B219A8000A89
:2009200019A0006A189900D117910040178B00B516840031167E00B31579003A157300C7AA
:20094000146F0058146A00EE1366008813630025135E00C7125B006C12570015125400C1FE
:2009600011510070114F0021114B00D61049008D1047004610440002104200C00F40008038
:200980000F3E00420F3C00060F3B00CB0E3800930E37005C0E3500270E3400F30D3200C149
:2009A0000D3100900D3000600D2E00320D2D00050D2C00D90C2B00AE0C2900850C29005CDE
:2009C0000C2700350C27000E0C2600E80B2400C40B2400A00B23007D0B23005A0B210039FA
:2009E0000B2100180B2000F80A1F00D90A1E00BB0A1E009D0A1D00800A1D00630A1C004748
:200A00000A1B002C0A1B00110A1A00F7091A00DD091900C4091900AB091900920917007B32
:200A2000091800630917004C09160036091600200916000A091500F5081500E0081400CC11
:200A4000081400B8081400A4081400900813007D0812006B08130058081200460812003418
:200A6000081100230811001208110001081100F0071000E0071000D0071000C0071000B070
:200A8000070F00A107100091070E0083070F0074070F0065070E0057070E0049070E003B40
:200AA000070D002E070E0020070D0013070D0006070D00F9060C00ED060D00E0060C00D499
:200AC000060C00C8060C00BC060C00B0060C00A4060B0099060C008D060B0082060B007792
:200AE000060B006C060B0061060A0057060B004C060A0042060A0038060A002E060A002437
:200B0000060A001A060A001006090007060A00FD050900F4050900EB050900E2050900D996
:200B2000050900D0050900C7050900BE050900B5050800AD050800A50509009C05080094BC
:200B40000508008C050800840508007C050800740508006C050700650508005D05070056AB
:200B60000508004E050700470507004005080038050700310507002A050700230507001C6C
:200B8000050600160507000F0507000805060002050700FB040600F5040700EE040600E807
:200BA000040600E2040700DB040600D5040600CF040600C9040600C3040600BD040600B783
:200BC000040600B1040500AC040600A6040600A00405009B04060095040500900406008ADB
:200BE00004050085040500800406007A04050075040500700405006B040500660405006116
:200C00000405005C04050057040500520405004D04050048040500430405003E0404003A38
:200C200004050035040500300404002C04050027040400230405001E0404001A0404001647
:200C4000040500110404000D040400090405000404040000040400FC030400F8030400F441
:200C6000030400F0030400EC030400E8030400E4030400E0030400DC030400D8030400D42C
:200C8000030400D0030400CC030400C8030300C50303006563686F3A00205A3A0020593ACA
:200CA0000020583A00656E6473746F7073206869743A20004572726F723A0054656D706514
:200CC0007261747572652068656174656420626564207377697463686564206F66662E2087
:200CE0004D415854454D5020747269676765726564202121003A20457874727564657220CC
:200D00007377697463686564206F66662E204D494E54454D502074726967676572656420B8
:200D200021003A204578747275646572207377697463686564206F66662E204D4158544542
:200D40004D5020747269676765726564202100202D20496E76616C696420657874727564E8
:200D60006572206E756D626572202100202D20496E76616C696420657874727564657220CB
:200D80006E756D6265722100504944204175746F74756E652066696E69736865642021208C
:200DA000506C61636520746865204B702C204B6920616E64204B6420636F6E7374616E7466
:200DC0007320696E2074686520636F6E66696775726174696F6E2E680050494420417574F3
:200DE0006F74756E65206661696C6564212074696D656F75740020403A006F6B20543A00D9
:200E0000504944204175746F74756E65206661696C6564212054656D70657261747572652C
:200E200020746F206869676800204B643A2000204B693A2000204B703A200020436C6173C0
:200E400069632050494420002054753A2000204B753A2000206D61783A2000206D696E3ACE
:200E6000200020643A200020626961733A200070012C0190012701B0012201C0011D01F061
:200E80000118011002130130020E016002090190020401C002FF000003FA004003F5008058
:200EA00003F000D003EB002004E6007004E100E004DC004005D700C005D2004006CD00D0CC
:200EC00006C8008007C3003008BE00F008B900C009B400B00AAF00B00BAA00D00CA5000087
:200EE0000EA000500F9B00C01096005012910000148C00C0158700B0178200B0197D00D096
:200F00001B7800001E730040206E0090226900F024640040275F0090295A00E02B55001003
:200F20002E500020304B0010324600E033410090353C001037370070383200A0392D00B0AD
:200F40003A2800A03B2300603C1E00103D1900903D1400103E0F00703E0A00C03E05000018
:200F60003F000000002100240027002A0000002200250028002B0000002000230026002970
:200F8000000202020202020202040404040404040403030303030303030101010101010102
:200FA000010102040810204080010204081020408001020408102040808040201008040235
:200FC0000100000001020000000000000004030706000000000000000000000000000000F9
:200FE00000494E46494E4954594E414ECDCCCC3D0AD7233C17B7D13877CC2B329595E6241D
:201000001FB14F0A000020410000C84200401C4620BCBE4CCA1B0E5AAEC59D74E4261124A4
:201020001FBECFEFD0E1DEBFCDBF12E0A0E0B1E0E4E8FEEA02C005900D92A039B107D9F72D
:201040001BE0A0E9B2E001C01D92A630B107E1F710E1CEE1D0E104C02297FE010E94FA56E5
:20106000CC31D107C9F70E94E2510C9440570C940000A0E0B0E0EFE3F8E00C940F57EC0182
:201080005B016115710519F0FB0191838083F9908F2D90E00E94FE56892BC9F7FDE2FF16D9
:2010A00021F4F990EE24E39405C02BE2F21609F4F990EE248E0101501040C80161EE7FE0F0
:2010C00043E050E00E94C80A892B01F58E010E5F1F4FC80164EE7FE045E050E00E94C80AF2
:2010E000892B19F48E01095F1F4FA114B10419F0F50111830083E0FC04C070E090E080E882
:2011000014C070E090E080E86FEF08C1C80169EE7FE043E050E00E94C80A892B69F4A114A0
:20112000B10429F470E090E080EC6FE7F7C02296F501D183C083F6CF8824992440E050E0E1
:2011400060E070E0EF2DE053EA30A0F5F2E0EF2A8E2D90E09C0128703070E2FE06C0232B22
:2011600079F50894811C911C2BC0232B19F0089481089108DB01CA0112E0880F991FAA1F6A
:20118000BB1F1A95D1F7480F591F6A1F7B1F440F551F661F771F4E0F511D611D711D4839D2
:2011A00029E9520729E9620729E1720748F084E0E82A06C0EE3F31F4E3FC39C098E0E92A9D
:2011C000F990C0CFE53311F0E53189F529912D3219F4E0E1EE2A05C02B3219F081E090E04F
:2011E00003C0299182E090E0E22FE053EA3018F0C81BD90B1CC020E030E0FCE020383F070D
:201200005CF4C901880F991F880F991F280F391F220F331F2E0F311DE991E053EA3068F357
:20122000E4FE03C0309521953F4F820E931ECE2CDD24E1FE07C0A114B10421F02197F501F5
:20124000D183C083CB01BA010E9463537B018C01F3E0CF22DD2423E0C216D10421F417FB73
:20126000109517F9109557016801C801B70120E030E040E050E00E94C352882309F44AC009
:2012800097FE0DC020E0E22E20E1F22E9094819491089394C0E2D0E000E010E012C098E155
:2012A000E92E90E1F92EF6CFF7012591359145915491C601B5010E94A3555B016C018C1A05
:2012C0009D0A8C169D0684F7D595C7950F5F1F4F0630110529F08CEF9FEFE80EF91EF1CFCA
:2012E000C501D6017C018D018C2D880F8D2D881F8F3F51F0C601B50120E030E040E050E0A9
:201300000E94C352882331F482E290E09093050B8093040B7E2D9F2D802F612F272F392FA9
:20132000482F562FB901CA01CDB7DEB7ECE00C942B572F923F925F926F927F928F929F923E
:20134000AF92BF92CF92DF92EF92FF920F931F93CF93DF938C011B01EA016115710519F066
:20136000FB0191838083209749F0CE010297839728F020E030E040E050E0F6C0F801A19090
:201380008F018A2D90E00E94FE56892BB9F7FDE2AF1631F4F801A1908F015524539407C092
:2013A000FBE2AF1619F4F801A1908F015524209719F0C031D105C1F4F0E3AF1679F4F80111
:2013C0008081883711F0883549F4F801A1800E5F1F4FF2E05F2AC0E1D0E006C0209721F41F
:2013E00080E3A816E9F427C0C830D10531F1C930D10524F4C230D10531F50CC0CA30D105A7
:2014000089F0C031D105F9F4C12CD12CE12CB8E0FB2E28C0C12CD12CE12CA0E4FA2E22C07A
:20142000CAE0D0E0FCECCF2EFCECDF2EFCECEF2EFCE0FF2E17C0C8E0D0E0C12CD12CE12C44
:20144000E0E1FE2E0FC09E01442737FD4095542F60E070E080E090E80E94A756C901DA018E
:201460006C017D0120E030E040E050E060E03E01882477FC8094982C70EDB72EBA0CE9E0DA
:20148000EB1570F48A2D81548A3118F499ECB92E06C08A2D81568A3150F589EAB82EBA0CB6
:2014A0008B2D90E08C179D0714F56F3FE1F0C216D306E406F506B0F0CA01B901A401930141
:2014C0000E9475569B01AC012B0D311D411D511D2130F0E03F07F0E04F07F0E85F0710F435
:2014E00061E001C06FEFF801A1908F01C5CF2114310481F0662331F001501040F101118392
:20150000008308C051FE1AC002501040F1011183008314C067FF12C050FC05C02FEF3FEF43
:201520004FEF5FE704C020E030E040E050E882E290E09093050B8093040B16C050FE08C0E6
:2015400050954095309521953F4F4F4F5F4F0CC057FF0AC082E290E09093050B8093040B67
:201560002FEF3FEF4FEF5FE7B901CA01DF91CF911F910F91FF90EF90DF90CF90BF90AF908C
:201580009F908F907F906F905F903F902F900895FB01DC014150504088F08D9181341CF084
:2015A0008B350CF4805E659161341CF06B350CF4605E861B611171F3990B0895881BFCCF72
:2015C000FC018191861721F08823D9F7992708953197CF010895FB0151915523A9F0BF0192
:2015E000DC014D9145174111E1F759F4CD010190002049F04D9140154111C9F3FB01411116
:20160000EFCF81E090E001970895AEE0B0E0EBE0FBE00C9417570D891E8986E08C831A83E5
:2016200009838FEF9FE79E838D839E01275E3F4FCE0101966F89788DA9010E94290B2F81A4
:201640003885020F131FF80110822E96E4E00C943357ABE0B0E0EFE2FBE00C9409573C0149
:201660002B015A01FC0117821682838181FD03C06FEF7FEFC6C19AE0892E1E010894211CF4
:20168000311CF3012381F20123FD859123FF81912F01882309F4B2C1853239F423FD8591A3
:2016A00023FF81912F01853229F490E0B3010E941C0DE7CF982FFF24EE249924FFE1FF15A0
:2016C000D0F09B3269F09C3228F4903259F0933291F40EC09D3249F0903369F441E024C0EA
:2016E00052E0F52A84E0F82A28C098E0F92A25C0E0E1FE2A22C0F7FC29C0892F80538A30BF
:2017000070F4F6FE05C0989C902C1124980E15C0E89CE02C1124E80EF0E2FF2A0EC09E32B8
:2017200029F4F6FC6BC140E4F42A07C09C3619F450E8F52A02C0983649F4F20123FD959129
:2017400023FF91912F01992309F0B8CF892F8554833018F08052833038F444E050E0A40ED6
:20176000B51E5FE359830FC0933631F0933779F0933509F056C020C0F5018081898342E0B0
:2017800050E0A40EB51E610101E010E012C0F501C080D180F6FC03C06FEF7FEF02C0692D2F
:2017A00070E042E050E0A40EB51EC6010E94110D8C015FE7F52214C0F501C080D180F6FC44
:2017C00003C06FEF7FEF02C0692D70E042E050E0A40EB51EC6010E94060D8C0150E8F52A9B
:2017E000F3FE07C01AC080E290E0B3010E941C0DEA948E2D90E008171907A8F30EC0F601BE
:20180000F7FC8591F7FE81916F0190E0B3010E941C0DE110EA94015010400115110579F7AD
:20182000EAC0943611F0993669F5F7FE08C0F501208131814281538184E090E00AC0F501D5
:20184000808191819C01442737FD4095542F82E090E0A80EB91E9FE6F92257FF09C05095DE
:201860004095309521953F4F4F4F5F4FE0E8FE2ACA01B901A1012AE030E00E94480DD82E10
:20188000D21840C0953729F41F2D1F7E2AE030E01DC01F2D197F9F3661F0903720F49835E3
:2018A00009F0ACC00FC0903739F0983709F0A6C004C028E030E00AC0106114FD146020E139
:2018C00030E004C014FD166020E132E017FF08C0F501608171818281938144E050E008C0C0
:2018E000F50180819181BC0180E090E042E050E0A40EB51EA1010E94480DD82ED2188FE77C
:20190000F82EF122F6FE0BC05EEFF522D91438F4F4FE07C0F2FC05C08FEEF82202C01D2D43
:2019200001C0192DF4FE0DC0FE01ED0DF11D8081803319F499EEF92208C01F5FF2FE05C07C
:2019400003C08F2D867809F01F5F0F2DF3FC14C0F0FE0FC01E1510F09D2C0BC09D2C9E0C9D
:20196000911A1E2D06C080E290E0B3010E941C0D1F5F1E15C0F304C01E1510F4E11A01C03F
:20198000EE2404FF0FC080E390E0B3010E941C0D02FF1DC001FD03C088E790E00EC088E558
:2019A00090E00BC0802F867891F001FF02C08BE201C080E2F7FC8DE290E0B3010E941C0D1B
:2019C00006C080E390E0B3010E941C0D9A94D914C0F3DA94F101ED0DF11D808190E0B30194
:2019E0000E941C0DDD20A9F706C080E290E0B3010E941C0DEA94EE20C1F743CEF301668138
:201A00007781CB012B96E2E10C942557FC010590615070400110D8F7809590958E0F9F1FFA
:201A20000895FC016150704001900110D8F7809590958E0F9F1F08950F931F93CF93DF93E0
:201A40008C01EB018B8181FF1BC082FF0DC02E813F818C819D812817390764F4E881F98104
:201A60000193F983E88306C0E885F985802F0995892B31F48E819F8101969F838E8302C059
:201A80000FEF1FEFC801DF91CF911F910F910895FA01AA27283051F1203181F1E8946F930D
:201AA0006E7F6E5F7F4F8F4F9F4FAF4FB1E03ED0B4E03CD0670F781F891F9A1FA11D680FF2
:201AC000791F8A1F911DA11D6A0F711D811D911DA11D20D009F468943F912AE0269F11248B
:201AE0003019305D3193DEF6CF010895462F4770405D4193B3E00FD0C9F7F6CF462F4F7043
:201B0000405D4A3318F0495D31FD4052419302D0A9F7EACFB4E0A69597958795779567951F
:201B2000BA95C9F700976105710508959B01AC010A2E06945795479537952795BA95C9F70C
:201B4000620F731F841F951FA01D0895DF93CF93CDB7DEB7E0970FB6F894DEBF0FBECDBF26
:201B6000DE011196EBE7F2E080E101900D928150E1F7DE015196EBE6F2E080E101900D9207
:201B80008150E1F7DE019196EBE5F2E080E101900D928150E1F789819A81AB81BC81809319
:201BA000210590932205A0932305B093240589899A89AB89BC898093110590931205A093AA
:201BC0001305B093140589A19AA1ABA1BCA18093310590933205A0933305B09334058D81EB
:201BE0009E81AF81B8858093250590932605A0932705B09328058D899E89AF89B88D809332
:201C0000150590931605A0931705B09318058DA19EA1AFA1B8A58093350590933605A093C5
:201C20003705B093380589859A85AB85BC858093290590932A05A0932B05B0932C05898DCA
:201C40009A8DAB8DBC8D8093190590931A05A0931B05B0931C0589A59AA5ABA5BCA5809381
:201C6000390590933A05A0933B05B0933C058D859E85AF85B88980932D0590932E05A09355
:201C80002F05B09330058D8D9E8DAF8DB8A180931D0590931E05A0931F05B09320058DA552
:201CA0009EA5AFA5B8A980933D0590933E05A0933F05B093400580E090E8ABE3B5E4809360
:201CC000450590934605A0934705B09348058093490590934A05A0934B05B0934C0520E053
:201CE00030E040E050E02093410530934205409343055093440580E29EE4A0E0B0E0809333
:201D00000D0590930E05A0930F05B09310052093590530935A0540935B0550935C0580E0D2
:201D200090E0A0EAB1E480934D0590934E05A0934F05B09350058DEC9CECACECBEE38093CD
:201D4000510590935205A0935305B093540580E090E0A0EAB0E48093550590935605A09380
:201D60005705B0935805E2E7F1E0949108C08091C00085FFFCCF9093C6003196949199232F
:201D8000B1F7E0E0F1E007C08091C00085FFFCCF31969093C60090819923B1F78091C0002D
:201DA00085FFFCCF8AE08093C600E0960FB6F894DEBF0FBECDBFCF91DF9108958091B5029F
:201DC00008950E94E3488091B502882309F036C081E08093B5028091B6029091B702A09138
:201DE000B802B091B9028093BA029093BB02A093BC02B093BD02E7ECF0E0949108C08091EA
:201E0000C00085FFFCCF9093C600319694919923B1F7EEECF0E0949108C08091C00085FF8E
:201E2000FCCF9093C600319694919923B1F78091C00085FFFCCF8AE08093C6000895F89412
:201E40000E94E348439A179A129A2B9AE7ECF0E0949108C08091C00085FFFCCF9093C6001D
:201E6000319694919923B1F7E6E4F1E0949108C08091C00085FFFCCF9093C6003196949195
:201E80009923B1F78091C00085FFFCCF8AE08093C600FFCF0E9462506093BE027093BF02E2
:201EA0008093C0029093C102E7E6F1E0949108C08091C00085FFFCCF9093C60031969491E7
:201EC0009923B1F78091C00085FFFCCF8AE08093C6000895EF92FF920F931F930E946250E4
:201EE000E090C202F090C3020091C4021091C5022091BE023091BF024091C0025091C10280
:201F0000621B730B840B950BE616F7060807190738F4E114F1040105110511F00E941F0F6C
:201F20008091F0019091F101A091F201B091F3010097A105B10529F10E9462502091BE0261
:201F40003091BF024091C0025091C102621B730B840B950B2091F0013091F1014091F20185
:201F60005091F301261737074807590750F490914E0A80914F0A981721F4439A179A129A3D
:201F80002B9A0E9412301F910F91FF90EF9008956F927F928F929F92AF92BF92CF92DF92D5
:201FA000EF92FF920F931F93F82E6091C6027091C7028091C8029091C9022091CA0230910D
:201FC000CB024091CC025091CD020E94DE543B014C016091EC017091ED0100D000D000D04B
:201FE0000DB71EB70F5F1F4F882777FD8095982F0E9465532091F4013091F5014091F601EE
:202000005091F7010E94A35520E030E040E752E40E94CA5220E030E048EC52E40E94CA52EA
:202020005B016C01F8016082718282829382F4828091B302858387E992E062ED72E046ECF7
:2020400052E020E001E032E0E32E0E94B1288091D2029091D302A091D402B091D5028093C2
:20206000970290939802A0939902B0939A028091D6029091D702A091D802B091D902809340
:202080009B0290939C02A0939D02B0939E028091DA029091DB02A091DC02B091DD02809300
:2020A0009F029093A002A093A102B093A2028091DE029091DF02A091E002B091E1028093C0
:2020C000A3029093A402A093A502B093A6028DB79EB706960FB6F8949EBF0FBE8DBF0E942F
:2020E00062506093BE027093BF028093C0029093C1021F910F91FF90EF90DF90CF90BF9081
:20210000AF909F908F907F906F900895CF92DF92EF92FF920F931F936091D2027091D302B4
:202120008091D4029091D50220E030E040E050E00E94C352882364F480E090E0A0E0B0E0C6
:202140008093D2029093D302A093D402B093D5026091D6027091D7028091D8029091D902F3
:2021600020E030E040E050E00E94C352882364F480E090E0A0E0B0E08093D6029093D7027E
:20218000A093D802B093D9026091DA027091DB028091DC029091DD0220E030E040E050E01A
:2021A0000E94C352882364F480E090E0A0E0B0E08093DA029093DB02A093DC02B093DD0263
:2021C0006091D2027091D3028091D4029091D50220E030E04DE453E40E94D154181664F4C0
:2021E00080E090E0ADE4B3E48093D2029093D302A093D402B093D5026091D6027091D70242
:202200008091D8029091D90220E030E04DE453E40E94D154181664F480E090E0ADE4B3E41A
:202220008093D6029093D702A093D802B093D9026091DA027091DB028091DC029091DD02F2
:2022400020E030E048E453E40E94D154181664F480E090E0A8E4B3E48093DA029093DB02DC
:20226000A093DC02B093DD020E9462506093BE027093BF028093C0029093C1026091EC01C7
:202280007091ED01882777FD8095982F0E9465532091F4013091F5014091F6015091F701F8
:2022A0000E94A35520E030E040E752E40E94CA5220E030E048EC52E40E94CA527B018C0118
:2022C00082ED92E066ED72E04AED52E02EED32E0E3EBCE2EE2E0DE2E0E94ED328091D202A4
:2022E0009091D302A091D402B091D5028093970290939802A0939902B0939A028091D602CA
:202300009091D702A091D802B091D90280939B0290939C02A0939D02B0939E028091DA0289
:202320009091DB02A091DC02B091DD0280939F029093A002A093A102B093A2028091DE0249
:202340009091DF02A091E002B091E1028093A3029093A402A093A502B093A6021F910F91AE
:20236000FF90EF90DF90CF9008958CE095E00E94DB26EAE6F1E0949108C08091C00085FF7D
:20238000FCCF9093C600319694919923B1F74091B6025091B7026091B8027091B9024F5F01
:2023A0005F4F6F4F7F4F8CE095E02AE030E00E949E278091C00085FFFCCF8AE08093C6001E
:2023C0000E944A0F08954091F4025091F50220E630E0B901469F9001479F300D569F300D2B
:2023E0001124682F772767FD7095C9018A509D4F0E94E00A9C01909377048093760480E0C6
:20240000232B09F081E008958091760490917704019660E070E04AE050E00E9499090895EE
:202420008091760490917704019660E070E00E9439080895AF92BF92CF92DF92EF92FF9258
:202440000F931F93CF93DF93F7E9EF2EF2E0FF2EC2EDD2E000E010E0F801E35EFD4F8081A0
:202460000E94E311882339F10E9410125B016C01F801E057FD4F8081882311F061E002C038
:202480006091E20270E0882777FD8095982F0E946553F70120813181428153810E94A35542
:2024A0009B01AC01C601B5010E94EA51688379838A839B8309C0F70180819181A281B3813C
:2024C00088839983AA83BB830F5F1F4F84E090E0E80EF91E24960430110509F0BDCF86E4BA
:2024E0000E94E3118823E1F00E9410127B018C016093E3027093E4028093E5029093E60237
:2025000020E030E040E050E00E94D154181644F4E092F401F092F5010093F6011093F7012A
:20252000DF91CF911F910F91FF90EF90DF90CF90BF90AF9008950E941A1289E40E94E311A3
:20254000882359F00E9410126093C6027093C7028093C8029093C9020CC080E090E0A0E055
:20256000B0E08093C6029093C702A093C802B093C9028AE40E94E311882359F00E9410123D
:202580006093CA027093CB028093CC029093CD02089580E090E0A0E0B0E08093CA0290935A
:2025A000CB02A093CC02B093CD0208952F923F924F925F926F927F928F929F92AF92BF9244
:2025C000CF92DF92EF92FF920F931F93DF93CF93CDB7DEB7A1970FB6F894DEBF0FBECDBF57
:2025E00087E40E94E311882309F4A9C40E9410120E9432536430710509F441C065307105C7
:2026000054F46230710541F1633071056CF57723CCF40C94D4216A35710509F43BC46B352E
:20262000710534F46C31710511F00C94D4216AC06B35710509F432C46C35710511F00C9468
:20264000D42131C48091B502882331F40E941A120E9486100C94F5218091B502882321F4B4
:202660000E949B1281E007C08091B502882339F40E949B1280E00E94C80F0C94F52180E500
:202680000E94E311882321F4EE24FF24870106C00E9410120E9437537B018C0183E50E945E
:2026A000E311882361F00E94101220E030E04AE754E40E94A3550E9437537B018C010E947C
:2026C000C53F0E9462505B016C01AE0CBF1CC01ED11E0E9462506093BE027093BF02809399
:2026E000C0029093C10205C00E94AD4A81E00E946A0F0E9462506A157B058C059D05A0F33F
:202700000C94D4218091F4019091F501A091F601B091F7018093E7029093E802A093E9027F
:20272000B093EA028091EC019091ED01909395028093940284E690E09093ED018093EC010F
:202740000E9462506093BE027093BF028093C0029093C10281E00E94133F809197029091D3
:202760009802A0919902B0919A028093D2029093D302A093D402B093D50280919B02909145
:202780009C02A0919D02B0919E028093D6029093D702A093D802B093D90280919F02909105
:2027A000A002A091A102B091A2028093DA029093DB02A093DC02B093DD028091A3029091C5
:2027C000A402A091A502B091A6028093DE029093DF02A093E002B093E10280E090E0A0E010
:2027E000B0E08093F4019093F501A093F601B093F70188E50E94E311882361F489E50E94B0
:20280000E311882339F48AE50E94E311882311F481E001C080E08093F801882331F488E56C
:202820000E94E311882309F4DAC00F2EF0E08F2EF0E09F2EF0E0AF2EF0E0BF2EF02D8092C0
:20284000970290929802A0929902B0929A0287E992E06BE972E04FE952E023EA32E00E94C5
:20286000C32C80E090ECA9E9B3EC8093D2029093D302A093D402B093D5026091DC0170918B
:20288000DD018091DE019091DF016093F4017093F5018093F6019093F70120E030E040E72C
:2028A00052E40E94CA527B018C0182ED92E066ED72E04AED52E02EED32E0A3EBCA2EA2E0F7
:2028C000DA2E0E94ED320E94C53F8092970290929802A0929902B0929A0287E992E06BE941
:2028E00072E04FE952E023EA32E00E94C32C80E090E0A0EAB0E48093D2029093D302A0936C
:20290000D402B093D5026091F4017091F5018091F6019091F70120E030E040E752E40E94BA
:20292000CA527B018C0182ED92E066ED72E04AED52E02EED32E00E94ED320E94C53F80E08F
:2029400090E0A0E2B1EC8093D2029093D302A093D402B093D5026091DC017091DD01809128
:20296000DE019091DF0120E030E040E05FE30E94A3556093F4017093F5018093F60190935D
:20298000F70120E030E040E752E40E94CA527B018C0182ED92E066ED72E04AED52E02EED01
:2029A00032E00E94ED320E94C53F8092970290929802A0929902B0929A028092D202909284
:2029C000D302A092D402B092D5028092F4019092F501A092F601B092F7010E940C3F809181
:2029E000F801882331F489E50E94E311882309F4DAC00F2EF0E08F2EF0E09F2EF0E0AF2EB4
:202A0000F0E0BF2EF02D80929B0290929C02A0929D02B0929E0287E992E06BE972E04FE9FA
:202A200052E023EA32E00E94C32C80E090ECA9E9B3EC8093D6029093D702A093D802B09370
:202A4000D9026091E0017091E1018091E2019091E3016093F4017093F5018093F6019093DF
:202A6000F70120E030E040E752E40E94CA527B018C0182ED92E066ED72E04AED52E02EED20
:202A800032E0F3EBCF2EF2E0DF2E0E94ED320E94C53F80929B0290929C02A0929D02B09281
:202AA0009E0287E992E06BE972E04FE952E023EA32E00E94C32C80E090E0A0EAB0E48093D3
:202AC000D6029093D702A093D802B093D9026091F4017091F5018091F6019091F70120E0F9
:202AE00030E040E752E40E94CA527B018C0182ED92E066ED72E04AED52E02EED32E00E94E4
:202B0000ED320E94C53F80E090E0A0E2B1EC8093D6029093D702A093D802B093D9026091FE
:202B2000E0017091E1018091E2019091E30120E030E040E05FE30E94A3556093F4017093E1
:202B4000F5018093F6019093F70120E030E040E752E40E94CA527B018C0182ED92E066EDF2
:202B600072E04AED52E02EED32E00E94ED320E94C53F80929B0290929C02A0929D02B09284
:202B80009E028092D6029092D702A092D802B092D9028092F4019092F501A092F601B092FD
:202BA000F7010E940C3F8091F801882331F48AE50E94E311882309F4DAC00F2EF0E08F2E45
:202BC000F0E09F2EF0E0AF2EF0E0BF2EF02D80929F029092A002A092A102B092A20287E92F
:202BE00092E06BE972E04FE952E023EA32E00E94C32C80E090E0A6E9B3EC8093DA02909393
:202C0000DB02A093DC02B093DD026091E4017091E5018091E6019091E7016093F4017093FB
:202C2000F5018093F6019093F70120E030E040E752E40E94CA527B018C0182ED92E066ED11
:202C400072E04AED52E02EED32E0E3EBCE2EE2E0DE2E0E94ED320E94C53F80929F029092B8
:202C6000A002A092A102B092A20287E992E06BE972E04FE952E023EA32E00E94C32C80E0F5
:202C800090E0A0E8BFE38093DA029093DB02A093DC02B093DD026091F4017091F50180918A
:202CA000F6019091F70120E030E040E752E40E94CA527B018C0182ED92E066ED72E04AED13
:202CC00052E02EED32E00E94ED320E94C53F80E090E0A0E0B0EC8093DA029093DB02A09320
:202CE000DC02B093DD026091E4017091E5018091E6019091E70120E030E040E05FE30E9402
:202D0000A3556093F4017093F5018093F6019093F70120E030E040E752E40E94CA527B010E
:202D20008C0182ED92E066ED72E04AED52E02EED32E00E94ED320E94C53F80929F029092AE
:202D4000A002A092A102B092A2028092DA029092DB02A092DC02B092DD028092F4019092CF
:202D6000F501A092F601B092F7010E940C3F88E50E94E3118823D9F00E94041261157105F2
:202D800081059105A1F00E9410122091A7023091A8024091A9025091AA020E94EA51609324
:202DA0009702709398028093990290939A0289E50E94E3118823D9F00E9404126115710554
:202DC00081059105A1F00E9410122091AB023091AC024091AD025091AE020E94EA516093D4
:202DE0009B0270939C0280939D0290939E028AE50E94E3118823D9F00E9404126115710503
:202E000081059105A1F00E9410122091AF023091B0024091B1025091B2020E94EA51609383
:202E20009F027093A0028093A1029093A20287E992E06BE972E04FE952E023EA32E00E941C
:202E4000C32C80E00E94133F8091E7029091E802A091E902B091EA028093F4019093F501C0
:202E6000A093F601B093F70180919402909195029093ED018093EC010E9462506093BE0276
:202E80007093BF028093C0029093C1020E940C3F0C94D4211092E2020C94D42181E08093A2
:202EA000E2020C94D42185E40E94E311882311F40E94C53F17E9E12E12E0F12EB7EACB2E8A
:202EC000B2E0DB2E00E010E0F801E35EFD4F80810E94E311882331F1033061F40E94101251
:202EE000F701608371838283938383EA92E00E94A52C18C00E941012F601208131814281ED
:202F000053810E94EA51F701608371838283938387E992E06BE972E04FE952E023EA32E005
:202F20000E94C32C0F5F1F4F24E030E0E20EF31EC20ED31E0430110539F60C94D4218DE4CF
:202F40000E94E311882311F40C941E210E9410120E9432536837710509F4C2C669377105B1
:202F60000CF04DC06535710509F41FC5663571051CF56A32710509F46BC16B32710574F47F
:202F80006231710509F4C8C46F31710509F4A4C06131710511F00C94D42198C06335710524
:202FA00009F4B6C4643571050CF0B6C46235710511F00C94D421A9C46D36710509F4B1C27C
:202FC0006E36710574F46836710509F487C16936710509F4FAC16C35710511F00C94D4219C
:202FE000FAC46337710509F47BC56737710509F47DC66237710511F00C94D42180C56C3DDF
:20300000710511F40C94DF1F6D3D710524F56B3C710509F41AC76C3C710574F46C387105C3
:2030200009F4BEC1693C710509F4D5C66937710511F00C94D42156C66D3C710509F443C773
:203040006D3C71050CF41FC76E3C710511F00C94D4210C94C11F31E06F32730711F40C9464
:20306000F12081E0603378079CF491E06D32790711F40C940020E1E06E327E0714F00C945D
:20308000ED206D3D710511F00C94D4210C94F11FF1E0653F7F0711F40C94032121E0663F53
:2030A00072073CF46059714011F00C94D4210C94002181E0663F780711F40C940521675E91
:2030C000734011F00C94D4210C9409214398179812982B980C94D4210E9462506093EB021D
:2030E0007093EC028093ED029093EE022091EF023091F0024091F1025091F202621B730BE1
:20310000840B950B28EE33E040E050E00E94A756F22EE32ED42EC52EEDB7FEB738970FB655
:20312000F894FEBF0FBEEDBF0DB71EB70F5F1F4FCE0101969283818388E191E0F8019383F0
:203140008283622F732F842F952F2CE330E040E050E00E94A756F801358324836F2D7E2D13
:203160008D2D9C2D2CE330E040E050E00E94A756F801778366830E94050BE2E7F1E0949171
:203180002DB73EB7285F3F4F0FB6F8943EBF0FBE2DBF08C08091C00085FFFCCF9093C60069
:2031A000319694919923B1F7FE01319607C08091C00085FFFCCF31969093C6009081992395
:2031C000B1F78091C00085FFFCCF8AE08093C60080917D05882311F40C94D42110927D05E8
:2031E0006091B302E62FF0E0EE0FFF1FE155F54F808191810E94FB462091FD013091FE014A
:203200004091FF01509100020E94D154181614F00C94D4216091B302062F10E080E090E0D1
:203220000E941B48000F111FF801E155F54F91838083000F111F0954154F80E090E0A0E070
:20324000B0E0F80180839183A283B3830C94D42183E50E94E311882311F40C94D4210E94F9
:2032600010127B018C0180E50E94E311882311F40C94D421C801B7010E9432537B0177FF49
:2032800002C00C94D4216F3F710519F014F00C94D4210E9410120E9432538B01E1E2F2E005
:2032A000808191818017910711F40C94D421329622E0E539F207A1F717FF02C00C94D4214C
:2032C000802F61E00E946451802F6E2D0E948A51802FB7010E9404510C94D4218091B30227
:2032E0008093F30284E50E94E311882389F10E9410120E943753262F6093F302662341F1BA
:20330000E2E7F1E0949108C08091C00085FFFCCF9093C600319694919923B1F7E7E2F1E033
:2033200007C08091C00085FFFCCF31969093C60090819923B1F78CE095E0622F40E050E0BF
:203340000E948C278091C00085FFFCCF0C94D12183E50E94E3118823F9F00E9410126B01A4
:203360007C01B090F3020B2D10E00E943253DC01CB016B2D0E941B48000F111FF801E15598
:20338000F54F91838083000F111F0954154FF801C082D182E282F3820E94FA460C94D421F4
:2033A00083E50E94E311882311F40C94D4210E9410120E943253DC01CB010E94F746909334
:2033C000B20A8093B10A0C94D4218091B3028093F30284E50E94E311882389F10E94101218
:2033E0000E943753262F6093F302662341F1E2E7F1E0949108C08091C00085FFFCCF9093DF
:20340000C600319694919923B1F7EEE3F1E007C08091C00085FFFCCF31969093C60090814C
:203420009923B1F78CE095E0622F40E050E00E948C278091C00085FFFCCF0C94D121EAE68F
:20344000F2E0949108C08091C00085FFFCCF9093C600319694919923B1F76091F302E62F59
:20346000F0E0EE0FFF1FED54F54F808191810E94FB46AB01BC018CE095E021E030E00E94E9
:20348000AE28E7E6F2E0949108C08091C00085FFFCCF9093C600319694919923B1F7609180
:2034A000F302E62FF0E0EE0FFF1FE155F54F808191810E94FB46AB01BC018CE095E021E05C
:2034C00030E00E94AE28E3E6F2E0949108C08091C00085FFFCCF9093C6003196949199232B
:2034E000B1F78091F3020E94F146BC018CE095E04AE050E00E94D327E5E5F1E007C080913E
:20350000C00085FFFCCF31969093C60090819923B1F78091C00085FFFCCF8AE08093C60014
:2035200064C78091B3028093F30284E50E94E311882381F10E9410120E943753262F60933E
:20354000F302662339F1E2E7F1E0949108C08091C00085FFFCCF9093C6003196949199238B
:20356000B1F7E6E5F1E007C08091C00085FFFCCF31969093C60090819923B1F78CE095E01A
:20358000622F40E050E00E948C278091C00085FFFCCF07C710927D0583E50E94E31188233A
:2035A000F9F00E9410126B017C01B090F3020B2D10E00E943253DC01CB016B2D0E941B48AB
:2035C000000F111FF801E155F54F91838083000F111F0954154FF801C082D182E282F382BB
:2035E00083E50E94E311882351F00E9410126093FD017093FE018093FF019093000282E48C
:203600000E94E311882351F00E9410126093F9017093FA018093FB019093FC0186E40E943E
:20362000E311882369F00E9410126093010270930202809303029093040281E080937D059A
:203640000E94FA460E9462503B014C01E091F302F0E0EE0FFF1FDF01A155B54F2D903C90F7
:20366000ED54F54F40805180AA24AA94BA2C6501E0E6F2E024912F8FECE5F2E0349138A38E
:20368000E8E5F2E0849189A333C19F8DE0E6F2E008C08091C00085FFFCCF9093C6003196FA
:2036A00094919923B1F76091F302E62FF0E0EE0FFF1FED54F54F808191810E94FB46AB0174
:2036C000BC018CE095E021E030E00E94AE2898A1ECE5F2E008C08091C00085FFFCCF9093DC
:2036E000C600319694919923B1F76091F3028CE095E070E04AE050E00E94D32799A1E8E5A0
:20370000F2E008C08091C00085FFFCCF9093C600319694919923B1F7D7FE03C0EDE6F1E07A
:203720002BC00E946250A6019501205F384D4F4F5F4F261B370B480B590BCA01B90128EEE8
:2037400033E040E050E00E94A7568CE095E0BA01A9012AE030E00E947F278091C00085FF6A
:20376000FCCF9AE09093C60011C08091C00085FFFCCF31969093C60090819923B1F78091F4
:20378000C00085FFFCCFEAE0E093C6000E9462503B014C010E94AD4A81E00E946A0FFFEF37
:2037A000AF16FFEFBF06FFEFCF06FFEFDF0609F053C06091F302421453043CF5E62FF0E046
:2037C000EE0FFF1FED54F54F808191810E94FB467B018C016091F302E62FF0E0EE0FFF1F64
:2037E000E155F54F808191810E94FB4620E030E040E85FE30E94E9519B01AC01C801B70139
:203800000E94D15487FF5AC060C0E62FF0E0EE0FFF1FED54F54F808191810E94FB467B012A
:203820008C016091F302E62FF0E0EE0FFF1FE155F54F808191810E94FB4620E030E040E86D
:203840005FE30E94EA519B01AC01C801B7010E94C35218169CF539C0D7FC37C06091F30260
:20386000E62FF0E0EE0FFF1FED54F54F808191810E94FB467B018C016091F302E62FF0E0F9
:20388000EE0FFF1FE155F54F808191810E94FB469B01AC01C801B7010E94E9510E943253D0
:2038A00097FF07C090958095709561957F4F8F4F9F4F64307105810591053CF00E94625036
:2038C000AC01CB01DA015C016D012FEFA2162FEFB2062FEFC2062FEFD20651F0D7FC67C501
:2038E0000E9462506A197B096051774208F05FC50E9462506619770988099909695E7340E7
:203900008040904008F0C1CE45CF109293024CC581E08093930248C583E50E94E311882375
:2039200099F00E94101220E030E04AE754E40E94A3550E9437536093F0017093F10180930F
:20394000F2019093F30130C588E50E94E311882309F042C589E50E94E311882309F03CC511
:203960008AE50E94E311882309F036C585E40E94E311882309F030C50E94C53F2B9A0E94FE
:20398000D23F12C5439A89E50E94E3118111179A8AE50E94E3118111129A85E40E94E311D9
:2039A000882309F401C52B9AFFC483E50E94E3110E94101220E030E04AE754E40E94A3553C
:2039C0000E9437536093C2027093C3028093C4029093C502E9C491E2692E95E0792E81E144
:2039E000282E85E0382E0DE5402E05E0502E88249924F401E35EFD4F80810E94E3118823B6
:203A000009F45DC0F3E08F1609F052C00E9410125B016C0120E030E040EA51E40E94C35256
:203A200088230CF03FC0F3016081718182819381A60195010E94CA527B018C0160915505B3
:203A4000709156058091570590915805A80197010E94A3556093550570935605809357052A
:203A600090935805F1016081718182819381A80197010E94A355F10160837183828393832B
:203A8000F20160817181828193810E946353A80197010E94A3550E943753F2016083718320
:203AA00082839383F301A082B182C282D38207C00E941012F30160837183828393830894FC
:203AC000811C911C24E030E0620E731E220E331E420E531E34E08316910409F08ACF64C489
:203AE000EDEBF1E0949108C08091C00085FFFCCF9093C600319694919923B1F755C4EAEBE9
:203B0000F1E0949108C08091C00085FFFCCF9093C600319694919923B1F740919702509143
:203B200098026091990270919A028CE095E022E030E00E94AE28E7EBF1E0949108C08091B6
:203B4000C00085FFFCCF9093C600319694919923B1F740919B0250919C0260919D0270919F
:203B60009E028CE095E022E030E00E94AE28E4EBF1E0949108C08091C00085FFFCCF90936A
:203B8000C600319694919923B1F740919F025091A0026091A1027091A2028CE095E022E0FE
:203BA00030E00E94AE28E1EBF1E0949108C08091C00085FFFCCF9093C60031969491992342
:203BC000B1F74091A3025091A4026091A5027091A6028CE095E022E030E00E94AE28E7EAC3
:203BE000F1E0949108C08091C00085FFFCCF9093C600319694919923B1F780E00E94B33FBA
:203C00000E946553209121053091220540912305509124050E94CA52AB01BC018CE095E080
:203C200022E030E00E94AE28E4EAF1E0949108C08091C00085FFFCCF9093C6003196949179
:203C40009923B1F781E00E94B33F0E946553209125053091260540912705509128050E943D
:203C6000CA52AB01BC018CE095E022E030E00E94AE28E1EAF1E0949108C08091C00085FF76
:203C8000FCCF9093C600319694919923B1F782E00E94B33F0E9465532091290530912A0501
:203CA00040912B0550912C050E94CA52AB01BC018CE095E022E030E00E94AE28E5E5F1E0C4
:203CC00007C08091C00085FFFCCF31969093C60090819923B1F78091C00085FFFCCF61C394
:203CE00080E001C081E00E94133F5EC3EAE9F1E0949108C08091C00085FFFCCF9093C60093
:203D0000319694919923B1F7349903C08FE691E002C082E791E0FC0107C08091C00085FF28
:203D2000FCCF31969093C60090819923B1F7E3E9F1E0949108C08091C00085FFFCCF9093C6
:203D4000C600319694919923B1F7069903C08FE691E002C082E791E0FC0107C08091C000D4
:203D600085FFFCCF31969093C60090819923B1F7ECE8F1E0949108C08091C00085FFFCCF1D
:203D80009093C600319694919923B1F7019903C08FE691E002C082E791E0FC0107C0809136
:203DA000C00085FFFCCF31969093C60090819923B1F7E5E5F1E007C08091C00085FFFCCF4D
:203DC00031969093C60090819923B1F78091C00085FFFCCFE6C21DE1C12E12E0D12EEE2406
:203DE000FF24F60180810E94E311882309F10E94101287010F5C1A4F0E943753F801608345
:203E00007183828393830E9410128701035A1A4FF701EF5DFA4F20813181428153810E9468
:203E2000A3550E943753F80160837183828393830894C11CD11C24E030E0E20EF31E31E2E5
:203E4000C31632E0D30669F6AFC20DE112E0B1E1EB2EB5E0FB2EF80180810E94E31188234A
:203E600039F00E941012F70160837183828393830F5F1F4F24E030E0E20EF31E32E0013235
:203E8000130749F791C283E50E94E311882351F00E941012609345057093460580934705DD
:203EA0009093480584E50E94E311882309F47CC20E9410126093490570934A0580934B05F3
:203EC00090934C0571C283E50E94E311882351F00E941012609341057093420580934305AF
:203EE0009093440584E50E94E311882351F00E9410126093590570935A0580935B0590935E
:203F00005C0582E40E94E311882361F00E9410120E94375360930D0570930E0580930F0516
:203F20009093100588E50E94E311882351F00E94101260934D0570934E0580934F05909371
:203F400050058AE50E94E311882351F00E94101260935105709352058093530590935405CD
:203F600085E40E94E311882309F41EC20E941012609355057093560580935705909358055C
:203F800013C20DE112E0A7EAEA2EA2E0FA2EF80180810E94E311882339F00E941012F701F9
:203FA00060837183828393830F5F1F4F24E030E0E20EF31E32E00032130749F7F5C183E562
:203FC0000E94E311882309F4EFC10E9410120E9432537093ED016093EC0181E0809396022B
:203FE000E3C183E50E94E311882309F4DDC10E9410120E9432537093EF016093EE01D4C184
:2040000080E50E94E311882351F00E94101260930A0270930B0280930C0290930D0289E426
:204020000E94E311882381F00E9410122DEB37E346E05EE30E94A35560930E0270930F02C0
:20404000809310029093110284E40E94E311882381F00E9410122DEB37E346E05EE30E94EC
:20406000CA526093120270931302809314029093150283E40E94E311882351F00E941012F5
:20408000609316027093170280931802909319020E94DA46E5E7F1E007C08091C00085FF13
:2040A000FCCF31969093C60090819923B1F7E8E7F1E007C08091C00085FFFCCF319690939F
:2040C000C60090819923B1F740910A0250910B0260910C0270910D028CE095E022E030E0D8
:2040E0000E94AE28ECE7F1E007C08091C00085FFFCCF31969093C60090819923B1F76091A7
:204100000E0270910F0280911002909111022DEB37E346E05EE30E94CA52AB01BC018CE0FA
:2041200095E022E030E00E94AE28E0E8F1E007C08091C00085FFFCCF31969093C60090813F
:204140009923B1F7609112027091130280911402909115022DEB37E346E05EE30E94A3554E
:20416000AB01BC018CE095E022E030E00E94AE28E4E8F1E007C08091C00085FFFCCF319620
:204180009093C60090819923B1F7609116027091170280911802909119022DEB37E346E0DF
:2041A0005EE30E94A355AB01BC018CE095E022E030E00E94AE28E5E5F1E007C08091C0001D
:2041C00085FFFCCF31969093C60090819923B1F78091C00085FFFCCFE4C081E00E94A22CD6
:2041E000E3C083E50E94E311882329F460E070E086E193E402C00E9410120E94364CD4C0AA
:204200000E94C53FD1C080E001C081E00E94A60DCBC01092B5028091BA029091BB02A091D0
:20422000BC02B091BD028093B6029093B702A093B802B093B9020E94B511B6C084E50E9445
:20424000E311882309F465C00E9410120E943753262F6093F302E2E7F1E0662391F19491A6
:2042600008C08091C00085FFFCCF9093C600319694919923B1F7E8E8F1E007C08091C000E4
:2042800085FFFCCF31969093C60090819923B1F78CE095E0622F40E050E00E948C27EAE8C1
:2042A000F1E007C08091C00085FFFCCF31969093C60090819923B1F78091C00085FFFCCF01
:2042C00070C01092B302949108C08091C00085FFFCCF9093C600319694919923B1F7EBE93D
:2042E000F1E007C08091C00085FFFCCF31969093C60090819923B1F78CE095E060E070E070
:204300004AE050E00E94D3278091C00085FFFCCF48C0E2E7F1E0949108C08091C00085FFA3
:20432000FCCF9093C600319694919923B1F7EAE7F1E0949108C08091C00085FFFCCF9093A7
:20434000C600319694919923B1F72091F4023091F50280E690E0289FF001299FF00D389FBE
:20436000F00D1124EA50FD4F07C08091C00085FFFCCF31969093C60090819923B1F7E8E7AA
:20438000F1E0949108C08091C00085FFFCCF9093C600319694919923B1F78091C00085FFB1
:2043A000FCCF8AE08093C6000E944A0F1EC00E9462506093EF027093F0028093F1029093C0
:2043C000F2020E9462506093BE027093BF028093C0029093C102E8CF0E94C53F88E50E94F7
:2043E000E311882309F0CECACECAA1960FB6F894DEBF0FBECDBFCF91DF911F910F91FF90C8
:20440000EF90DF90CF90BF90AF909F908F907F906F905F904F903F902F9008958F929F921A
:20442000AF92BF92CF92DF92EF92FF920F931F93CF93DF9310E6C12ED12CE0E7F2E0A4902F
:20444000BAE09B2EE8EEF2E0B4908824839424C22D3071F02A3321F480917904882341F0CA
:2044600080917A0490917B048F3591050CF4F0C1E0917A04F0917B04309719F41092790420
:204480002AC2A0917C04B0917D04AC9D8001AD9D100DBC9D100D1124E00FF11FEA50FD4F5C
:2044A000108280917904882309F0CDC110927904A258BB4F1C92E801CA50DD4FCE016EE489
:2044C00070E00E94E00A9C01009709F410C190937704809376042F5F3F4F2C1B3D0B200FF9
:2044E000311FC9018A509D4F60E070E04AE050E00E94990960938204709383048093840410
:2045000090938504E090B602F090B7020091B8021091B902A80197012F5F3F4F4F4F5F4F3E
:20452000621773078407950709F43DC080917C0490917D049C012C9DC0012D9D900D3C9DCD
:20454000900D11248A509D4F6DEA71E00E94EB0A009749F5E7ECF0E0949108C08091C0004E
:2045600085FFFCCF9093C600319694919923B1F7EBE5F3E0949108C08091C00085FFFCCF03
:204580009093C600319694919923B1F78CE095E0B801A7012AE030E00E949E278091C0004E
:2045A00085FFFCCF8DC080917C0490917D048C9DE0018D9DD00D9C9DD00D1124CE018A5027
:2045C0009D4F6AE270E00E94E00A9C01009709F44FC010E040E0CE0102C01E274F5FFC01F6
:2045E000E40FF11DEA50FD4FE081EA32B1F73093770420937604C901019660E070E00E9411
:2046000039080E943253212F30E02617370709F45DC0E7ECF0E0949108C08091C00085FF58
:20462000FCCF9093C600319694919923B1F7EDE3F3E0949108C08091C00085FFFCCF9093A3
:20464000C600319694919923B1F74091B6025091B7026091B8027091B9028CE095E02AE0CF
:2046600030E00E949E278091C00085FFFCCF28C0E7ECF0E0949108C08091C00085FFFCCF0B
:204680009093C600319694919923B1F7E4E1F3E0949108C08091C00085FFFCCF9093C60053
:2046A000319694919923B1F78CE095E0B801A7012AE030E00E949E278091C00085FFFCCFC7
:2046C0008AE08093C6000E94B5114AC08091820490918304A0918404B09185048093B60298
:2046E0009093B702A093B802B093B9023EC0CE016AE270E00E94E00A009709F436C0E7ECA1
:20470000F0E0949108C08091C00085FFFCCF9093C600319694919923B1F7EBEEF2E09491B3
:2047200008C08091C00085FFFCCF9093C600319694919923B1F74091B6025091B702609144
:20474000B8027091B9028CE095E02AE030E00E949E278091C00085FFFCCF8AE08093C6001E
:2047600010927B0410927A04B6C080917C0490917D048C9D80018D9D100D9C9D100D1124D3
:20478000E801CA50DD4FCE0167E470E00E94E00A9C01009709F441C0909377048093760497
:2047A0002F5F3F4F2C1B3D0B200F311FC9018A509D4F60E070E00E9439080E943253643011
:2047C000710558F58091B502882399F49B2DE8EEF2E008C08091C00085FFFCCF9093C600D5
:2047E000319694919923B1F78091C00085FFFCCF12C09A2DE0E7F2E008C08091C00085FFFA
:20480000FCCF9093C600319694919923B1F78091C00085FFFCCF9092C60080917C049091DA
:204820007D04019664E070E00E94945690937D0480937C0480918604909187040196909308
:2048400087048093860410927B0410927A0424C02B3311F480927904809179048823E1F40B
:2048600020917A0430917B0480917C0490917D048C9DF0018D9DF00D9C9DF00D1124E20FF9
:20488000F31FEA50FD4F8091780480832F5F3F4F30937B0420937A04809108059091090514
:2048A00020910A0530910B05821B930B8F779070892B89F0809186049091870404975CF4C7
:2048C0008CE095E00E94BD26282F809378048A3009F0BECDCDCDDF91CF911F910F91FF9005
:2048E000EF90DF90CF90BF90AF909F908F9008958091860490918704039714F40E940E2237
:204900008091860490918704892BC1F00E94D61280918604909187040197909387048093C1
:2049200086048091F4029091F502019664E070E00E9494569093F5028093F4020E94AD4A5B
:2049400081E00E946A0F0E940C460895EF92FF920F931F93DF93CF9300D0CDB7DEB78CE0BB
:2049600095E040E950ED63E070E00E948526E2E4F4E0949108C08091C00085FFFCCF9093B2
:20498000C600319694919923B1F78091C00085FFFCCF8AE08093C60042E751E0FA01949124
:2049A00008C08091C00085FFFCCF9093C600319694919923B1F784B7282F80FF15C0EAE323
:2049C000F4E0949108C08091C00085FFFCCF9093C600319694919923B1F78091C00085FF68
:2049E000FCCF8AE08093C60021FF15C0EAE2F4E0949108C08091C00085FFFCCF9093C6001E
:204A0000319694919923B1F78091C00085FFFCCF8AE08093C60022FF15C0E9E1F4E094912A
:204A200008C08091C00085FFFCCF9093C600319694919923B1F78091C00085FFFCCF8AE0CB
:204A40008093C60023FF15C0E9E0F4E0949108C08091C00085FFFCCF9093C6003196949107
:204A60009923B1F78091C00085FFFCCF8AE08093C60025FF15C0E9EFF3E0949108C08091CD
:204A8000C00085FFFCCF9093C600319694919923B1F78091C00085FFFCCF8AE08093C6006B
:204AA00014BEE1EFF3E0949108C08091C00085FFFCCF9093C600319694919923B1F7E7EE66
:204AC000F3E0949108C08091C00085FFFCCF9093C600319694919923B1F78091C00085FF68
:204AE000FCCF8AE08093C600FA019491E2E7F1E008C08091C00085FFFCCF9093C600319656
:204B000094919923B1F7E7EDF3E0949108C08091C00085FFFCCF9093C600319694919923C7
:204B2000B1F7ECECF3E0949108C08091C00085FFFCCF9093C600319694919923B1F7E0EC10
:204B4000F3E0949108C08091C00085FFFCCF9093C600319694919923B1F7E3EBF3E0949176
:204B600008C08091C00085FFFCCF9093C600319694919923B1F78091C00085FFFCCF8AE08A
:204B80008093C600FA019491E2E7F1E008C08091C00085FFFCCF9093C60031969491992309
:204BA000B1F7E4EAF3E0949108C08091C00085FFFCCF9093C600319694919923B1F72091B5
:204BC000000B3091010BCE0101962115310519F486509B4002C0821B930B9A83898369815D
:204BE0007A818CE095E04AE050E00E94D327EDE8F3E0949108C08091C00085FFFCCF90930B
:204C0000C600319694919923B1F78CE095E060ED74E04AE050E00E94D3278091C00085FFB1
:204C2000FCCF8AE08093C60010927E0410927F04109280041092810480E00E94A60DEE2409
:204C4000FF248701035A1A4FF701EF5CFA4F60817181828193810E946353F701EF5DFA4F88
:204C600020813181428153810E94A3550E943753F801608371838283938384E090E0E80ECF
:204C8000F91E90E1E916F104E1F60E94614A0E9424300E941C3F0F900F90CF91DF911F91C3
:204CA0000F91FF90EF9008951F920F920FB60F9211242F933F934F938F939F93EF93FF93DE
:204CC0004091C600E0910805F091090531969F012F773070319780910A0590910B0528172B
:204CE000390739F0E857FB4F40833093090520930805FF91EF919F918F914F913F912F919E
:204D00000F900FBE0F901F9018959A01AB01203081EE380780E0480780E0580749F182E0DD
:204D20008093C00060E079E08DE390E00E94C9562150304040405040CA01B90122E030E0DE
:204D400040E050E00E94C9563093C5002093C4008091C10080618093C1008091C100886002
:204D60008093C1008091C10080688093C10008951092C00020E130E0E7CF20910A0530918A
:204D80000B0580910805909109058217930719F42FEF3FEF0EC0F901E857FB4F80812F5F4A
:204DA0003F4F2F77307030930B0520930A05282F30E0C901089580910A0590910B05909348
:204DC000090580930805089508952F923F924F925F926F927F928F929F92AF92BF92CF92B0
:204DE000DF92EF92FF920F931F93DF93CF93CDB7DEB7A0970FB6F894DEBF0FBECDBF1C0154
:204E00006A017B01411551056105710549F440E350E060E070E020E030E00E949E2756C076
:204E2000882499245401422E55246624772401E010E00C0F1D1F080D191DC701B601A30110
:204E400092010E94A756F80160830894811C911CA11CB11CC701B601A30192010E94A7567F
:204E6000C901DA016C017D01C114D104E104F104F1F681E0E82EF12CEC0EFD1EE80CF91C85
:204E80003E010894611C711CD501C4010197A109B1096C01C818D90816C0F601EE0DFF1D84
:204EA00040814A3010F4405D01C0495C552747FD5095652F752FC10120E030E00E949E279A
:204EC0000894E108F1086E147F0439F7A0960FB6F894DEBF0FBECDBFCF91DF911F910F9182
:204EE000FF90EF90DF90CF90BF90AF909F908F907F906F905F904F903F902F9008952115BD
:204F0000310539F48091C00085FFFCCF4093C60008950E94E5260895EF92FF920F931F9328
:204F20009A01E62EFF2400E010E0B801A7010E947F271F910F91FF90EF900895EF92FF9219
:204F40000F931F93CF93DF93EC017A018B012115310539F48091C00085FFFCCFE092C60044
:204F60001BC02A303105B1F477FF10C04DE250E060E070E020E030E00E949E27109500953B
:204F8000F094E094E11CF11C011D111DCE01B801A7012AE00E94E526DF91CF911F910F91BC
:204FA000FF90EF900895EF92FF920F931F937B019A010027F7FC0095102FB801A7010E94D8
:204FC0009E271F910F91FF90EF9008950F931F938C014DE050E060E070E020E030E00E9491
:204FE0009E27C8014AE050E060E070E020E030E00E949E271F910F910895CF92DF92EF9282
:20500000FF920F931F938C019A016B01EE24FF24B701A6010E947F27C8010E94E6271F9113
:205020000F91FF90EF90DF90CF9008959F92AF92BF92CF92DF92EF92FF920F931F93CF93FA
:20504000DF93EC017A018B01922ECB01BA0120E030E040E050E00E94C35288236CF4CE01B2
:205060004DE250E060E070E020E030E00E949E2717FB109517F9109520E030E040E05FE3EC
:20508000AA240BC0CA01B90120E030E040E251E40E94CA529B01AC01A394A91498F3C8013C
:2050A000B7010E94EA517B018C010E9437535B016C010E9463539B01AC01C801B7010E9499
:2050C000E9517B018C01CE01B601A5012AE030E00E947F279920A1F1E2EBF1E007C080913E
:2050E000C00085FFFCCF31969093C60090819923B1F726C0C801B70120E030E040E251E4AE
:205100000E94A3557B018C010E9432535B016C01CC24B7FCC094DC2CCE01B601A5012AE0C7
:2051200030E00E949E27C601B5010E9465539B01AC01C801B7010E94E9517B018C019A9444
:205140009920C1F6DF91CF911F910F91FF90EF90DF90CF90BF90AF909F9008950E941628A9
:2051600008952F923F924F925F926F927F928F929F92AF92BF92CF92DF92EF92FF920F93B2
:205180001F93DF93CF93CDB7DEB7CD55D0400FB6F894DEBF0FBECDBF2F969FAF8EAF2F97E1
:2051A00061967FAF6EAF61972A0162962FAF629763960FAF63976496EFAE64976896ACAE20
:2051C000BDAECEAEDFAE6897E22EFF24EE0CFF1CEE0CFF1C9A012E0D3F1D2D963FAF2EAF3F
:2051E0002D97D9016D907D908D909C90FC01EE0DFF1DC401B30120813181428153810E94A5
:20520000EA5169AF7AAF8BAF9CAF10E0000F111F000F111FF201E00FF11F2B96FFAFEEAF21
:205220002B97A080B180C280D3802F96EEADFFAD2F97E00FF11FC601B50120813181428162
:2052400053810E94EA516DAB7EAB8FAB98AF64962FAD6497E22FF0E0EE0FFF1FEE0FFF1FF3
:205260002F96AEADBFAD2F97AE0FBF1F4D915D916D917C9129964CAF5DAF6EAF7FAF299799
:2052800061966EAD7FAD6197E60FF71F608171818281938129962CAD3DAD4EAD5FAD29979A
:2052A0000E94E95169AB7AAB8BAB9CAB6196AEADBFAD61971C968D919D910D90BC91A02DF1
:2052C00025968CAF9DAFAEAFBFAF25972F96AEADBFAD2F971C962D913D914D915C911F97F4
:2052E00021962CAF3DAF4EAF5FAF2197A401930150582DA73EA74FA758ABB601A5017058B5
:2053000049A75AA76BA77CA761966EAD7FAD6197E60EF71ED7016D917D918D919C9129AD23
:205320003AAD4BAD5CAD0E94E9513B014C016196EEADFFAD61970E0F1F1FD8016D917D91AA
:205340008D919C912DA93EA94FA958AD0E94E9515B016C016DA57EA58FA598A9A6019501BC
:205360000E94A3557B018C0169A57AA58BA59CA5A40193010E94A3559B01AC01C801B7014F
:205380000E94E9511B012C016DA57EA58FA598A9A40193010E94A3557B018C0169A57AA535
:2053A0008BA59CA5A60195010E94A3559B01AC01C801B7010E94EA519B01AC01C201B10140
:2053C0000E945D525B016C0120E030E040E050E00E94C352882354F4C601B5012BED3FE0F5
:2053E00049EC50E40E94EA515B016C01E7968FADE797882351F0C601B5012BED3FE049EC92
:2054000050E40E94E9515B016C01C601B501E6962CAD3DAD4EAD5FADE6970E94A35529A907
:205420003AA94BA95CA95F770E94DE547B018C012FE632E143E85AE30E94C35287FD68C2E8
:20544000C801B7010E94A0530E94375378A76FA3672B21F4E1E0F0E0F8A7EFA32FA138A5C3
:20546000B90180E090E00E9463537B018C01C601B501A80197010E94CA526BA37CA38DA368
:205480009EA369A97AA98BA99CA9A80197010E94CA526F8F78A389A39AA325966CAD7DAD9E
:2054A0008EAD9FAD259721962CAD3DAD4EAD5FAD21970E94E951A80197010E94CA526B8F9B
:2054C0007C8F8D8F9E8F6BA17CA18DA19EA120E030E040E05FEB0E94A3552BA13CA14DA137
:2054E0005EA10E94A35520E030E040E85FE30E94EA516F8B788F898F9A8F64963FAD649799
:20550000E32FF0E0EE0FFF1FEE0FFF1F9E012F5F3F4FE20FF31F29964CAD5DAD6EAD7FADAC
:20552000299740835183628373832F96AEADBFAD2F971C964D915D916D917C911F974D87D4
:205540005E876F87788B41E050E05A8B498B662462967FAD6297672F70E0660F771F660F56
:20556000771FC901860F971F6A969FAF8EAF6A976396BFAD6397AB2FB0E0AA0FBB1FAA0FDF
:20558000BB1F21E030E02C0F3D1F2A0F3B1F6C963FAF2EAF6C976E96FFAFEEAF6E9790C181
:2055A00038E136150CF446C06DA57EA58FA598A92BA13CA14DA15EA10E94A3557B018C019E
:2055C00069A57AA58BA59CA52F89388D498D5A8D0E94A3559B01AC01C801B7010E94EA51B2
:2055E0007B018C016DA57EA58FA598A92F89388D498D5A8D0E94A3555B016C0169A57AA52E
:205600008BA59CA52BA13CA14DA15EA10E94A3559B01AC01C601B5010E94E9516DA77EA70E
:205620008FA798AB6394C701D80189A79AA7ABA7BCA765C049895A89BA0180E090E00E942C
:2056400063532BA13CA14DA15EA10E94A3557B018C01C8010E94C7526B8B7C8B8D8B9E8B99
:20566000B701C8010E9406563B014C012D96AEADBFAD2D97ED90FD900D911C9117FB1095C8
:2056800017F910952B96EEADFFAD2B972080318042805380C801B7012B893C894D895E89EE
:2056A0000E94A3555B016C01C201B101A40193010E94A3559B01AC01C601B5010E94EA519C
:2056C0006DA77EA78FA798ABC801B701A40193010E94A3557B018C01C201B1012B893C89CD
:2056E0004D895E890E94A3559B01AC01C801B7010E94E95169A77AA78BA79CA7662469AD67
:205700007AAD8BAD9CAD2DA53EA54FA558A90E94EA516A96AEADBFAD6A976D937D938D9362
:205720009C9313976DA97EA98FA998AD29A53AA54BA55CA50E94EA516C96EEADFFAD6C970F
:2057400060837183828393836E96AEADBFAD6E976D917D918D919C912F8D38A149A15AA1B6
:205760000E94EA516E96EEADFFAD6E976083718382839383ED84FE840F85188969817A81FD
:205780008B819C8120E030E040E050E00E94C352882344F480E090E0A0E0B0E089839A83DD
:2057A000AB83BC836D817E818F81988520E030E040E050E00E94C352882344F480E090E098
:2057C000A0E0B0E08D839E83AF83B88769857A858B859C8520E030E040E050E00E94C352E2
:2057E000882344F480E090E0A0E0B0E089879A87AB87BC8769817A818B819C8120E030E022
:205800004DE453E40E94D154181644F480E090E0ADE4B3E489839A83AB83BC836D817E8178
:205820008F81988520E030E04DE453E40E94D154181644F480E090E0ADE4B3E48D839E836D
:20584000AF83B88769857A858B859C8520E030E048E453E40E94D154181644F480E090E049
:20586000A8E4B3E489879A87AB87BC87C801B7012B8D3C8D4D8D5E8D0E94EA516D877E87C2
:205880008F87988BCE010196BE016B5F7F4FAE01475F5F4F9E01235F3F4F6896ECACFDAC21
:2058A0000EAD1FAD6897F7E7CF2ED12CCC0EDD1E0E94ED3229893A892F5F3F4F3A8B298BEA
:2058C00049895A896FA178A54617570708F468CE61964EAD5FAD6197485F5F4F61962EADDC
:2058E0003FAD6197245F3F4F61968EAD9FAD6197DC011496BD016896ECACFDAC0EAD1FAD32
:205900006897E7E7CE2ED12CCC0EDD1E0E94ED32C35ADF4F0FB6F894DEBF0FBECDBFCF9139
:20592000DF911F910F91FF90EF90DF90CF90BF90AF909F908F907F906F905F904F903F9044
:205940002F9008958093500A0895FC01608171818281938120912D0530912E0540912F051E
:20596000509130050E94A3550E9473556093790570937A0580937B0590937C0589E795E0FE
:205980000E94A23F08958F929F92AF92BF92CF92DF92EF92FF920F931F93FC018B015A01E7
:2059A00049016081718182819381209121053091220540912305509124050E94A3550E94B5
:2059C00073553DE6C32E35E0D32E60936D0570936E0580936F0590937005F801608171810F
:2059E00082819381209125053091260540912705509128050E94A3550E94735524E0E22EA6
:205A0000F12CEC0CFD1C60937105F701718382839383F50160817181828193812091290529
:205A200030912A0540912B0550912C050E94A3550E9473558601085F1F4F60937505F8019D
:205A4000718382839383F401608171818281938120912D0530912E0540912F055091300566
:205A60000E94A3550E947355F6013C9660937905718382839383C601B701A8019F010E946F
:205A8000683F80E090E0A0E0B0E08093510A9093520AA093530AB093540A8093550A9093CC
:205AA000560AA093570AB093580A8093590A90935A0AA0935B0AB0935C0A80935D0A909372
:205AC0005E0AA0935F0AB093600A8093610A9093620AA093630AB093640A1F910F91FF90D8
:205AE000EF90DF90CF90BF90AF909F908F9008958F929F92AF92BF92CF92DF92EF92FF9218
:205B00000F931F93CF93DF93EC016B01009709F45CC08FA9882309F058C0EEA0FFA008A586
:205B200019A5FB01B6A0A7A090A481A4C801B7012B2D3A2D492D582D0E94C35288230CF01C
:205B400044C0C801B701A80197010E94A3557B018C016AA97BA98CA99DA9905820E030E032
:205B600040E050EC0E94A3552EA53FA548A959A90E94A3559B01AC01C801B7010E94EA5144
:205B80000E9410567B018C016B2D7A2D892D982D9701A8010E94C352882324F4EB2CFA2C42
:205BA000092D182D6B2D7A2D892D982D9701A8010E94C352882349F0C701D801F60186A313
:205BC00097A3A0A7B1A781E086ABDF91CF911F910F91FF90EF90DF90CF90BF90AF909F90A1
:205BE0008F900895EF92FF920F931F93CF93DF93F0904F0A00E010E020E030E04DE4E42EB3
:205C000012C0FE9CE0011124C258DA4FC901B801AE010E94782D8F2D8F5F803109F480E08E
:205C2000F82E98018E0180914E0AF81651F7C901B80140E050E00E94782DDF91CF911F91BD
:205C40000F91FF90EF900895AF92BF92CF92DF92EF92FF920F931F93CF93DF93EB018A01E4
:205C60006115710509F466C04115510509F462C0DAA4CBA4BCA4ADA46EA17FA188A599A512
:205C80002D2D3C2D4B2D5A2D0E94C352882309F451C08FA9882309F043C0F801E6A0F7A0DD
:205CA00000A511A56D2D7C2D8B2D9A2DA80197010E94D1541816A4F5C801B701A801970136
:205CC0000E94A3557B018C016AA97BA98CA99DA9905820E030E040E050EC0E94A3552EA5AE
:205CE0003FA548A959A90E94A3559B01AC01C801B7010E94EA510E9410567B018C016D2DE1
:205D00007C2D8B2D9A2D9701A8010E94C352882324F4ED2CFC2C0B2D1A2DC701D80104C07B
:205D20008D2D9C2DAB2DBA2D8EA39FA3A8A7B9A781E08EABDF91CF911F910F91FF90EF9037
:205D4000DF90CF90BF90AF900895CF92DF92EF92FF920F93DF93CF9300D0CDB7DEB78091F6
:205D60004E0A8FB7F894F0904F0A8FBF80914E0A90E040968F1991098F709070049704F152
:205D800000914E0A03500F70CC24DD2440E050E06DE4E62E13C0802F002309F480E1082F68
:205DA00001500E9DC001112482589A4F9A838983B6010E94242EA601C980DA800F1559F79C
:205DC0000F900F90CF91DF910F91FF90EF90DF90CF9008953F924F925F926F927F928F92C6
:205DE0009F92AF92BF92CF92DF92EF92FF920F931F93CF93DF9380917D05882309F400C1D8
:205E00008091AF0A9091B00A60E00E94FB468090FD019090FE01A090FF01B090000220E01B
:205E200030E040E050E40E94EA51A50194010E94C35287FDE5C030904F0A0F2EF0E04F2E63
:205E4000F0E05F2EF0E06F2EF0E07F2EF02DCDE4D0E058C0232D30E02C9FF0012D9FF00D80
:205E60003C9FF00D1124E258FA4F80819181A281B3810097A105B10581F484819581A6817E
:205E8000B7810097A105B10541F480859185A285B3850097A105B10591F12C9F60012D9FBB
:205EA000D00C3C9FD00C11248EE795E0C80ED91EF60164857585868597850E9465537B018C
:205EC0008C01F60160897189828993890E9463539B01AC01C801B7010E94CA52F60122A19A
:205EE00033A144A155A10E94A3557B018C01A30192010E94D154181614F4270138013394F4
:205F0000FFE03F2280914E0A381609F0A3CFC301B201209101023091020240910302509178
:205F200004020E94A3559B01AC01C501B4010E94EA517B018C01A50194010E94C35287FDA1
:205F400002C0470158011091F9010091FA01F090FB01E090FC01C501B401212F302F4F2D28
:205F60005E2D0E94D154181634F4812F902FAF2DBE2D4C015D014090650A5090660A609019
:205F8000670A7090680AC301B201A50194010E94D1541816C4F4C501B40120E037ED43EAF3
:205FA0005CE30E94A3557B018C01C301B20128E431EE4AE75FE30E94A355A80197010E946D
:205FC000EA514B015C018092650A9092660AA092670AB092680AC501B4010E943253DC01F4
:205FE000CB0160E00E941B489093B00A8093AF0A8092B70A9092B80AA092B90AB092BA0A35
:20600000DF91CF911F910F91FF90EF90DF90CF90BF90AF909F908F907F906F905F904F90CC
:206020003F90089590914F0A80914E0A981749F090914F0A02C09F5F9F7080914E0A9817C8
:20604000D1F70E94EA2E089510924E0A10924F0A80E1EDE6F5E0DF011D928A95E9F780E035
:2060600090E0A0E0B0E08093550A9093560AA093570AB093580A8093590A90935A0AA09342
:206080005B0AB0935C0A80935D0A90935E0AA0935F0AB093600A8093610A9093620AA09364
:2060A000630AB093640A8093510A9093520AA093530AB093540A08952F923F924F925F92A3
:2060C0006F927F928F929F92AF92BF92CF92DF92EF92FF920F931F93DF93CF93CDB7DEB7A5
:2060E00066970FB6F894DEBF0FBECDBF9E8B8D8B6A017B0148015901DC01D8966D917D913A
:206100008D919C91DB970E946353698B7A8B8B8B9C8BA70196010E94A3550E94B0520E9415
:2061200037536D837E838F83988769897A898B899C89A50194010E94A3550E94B0520E946A
:20614000375369837A838B839C832D813E814F815885283731054105510540F448E750E0C1
:2061600060E070E04D835E836F83788769817A818B819C81683771058105910540F488E70B
:2061800090E0A0E0B0E089839A83AB83BC83AD89BE89AC5BBF4FAD90BD90CD90DC9013975A
:2061A000A454B040BE8BAD8BDC966D917D918D919C91DF970E9463536D877E878F87988BAD
:2061C000C601B5010E9465531B012C0120E030E040E050E00E94C352882321F4E0E070E0B8
:2061E00060E028C069897A898B899C899B01AC010E94A3557B018C016D857E858F85988933
:206200009B01AC010E94A3559B01AC01C801B7010E94E9517B018C01C201B101A201910142
:206220000E94EA519B01AC01C801B7010E94CA52E62F692F2E2F372F482F562FB901CA0108
:206240000E94B0520E9432533B014C01ED89FE89E05CFF4F60817181828193810E94635321
:2062600069877A878B879C8766277727CB016A197B098C099D090E9465535B016C0120E09C
:2062800030E040E050E00E94C352882321F4E0E070E060E028C069857A858B859C859B0135
:2062A000AC010E94A3557B018C0169897A898B899C899B01AC010E94A3559B01AC01C8016B
:2062C000B7010E94E9517B018C01C601B501A60195010E94EA519B01AC01C801B7010E941E
:2062E000CA52E62F692F2E2F372F482F562FB901CA010E94A053ED89FE89A088B188C28854
:20630000D38886017501E618F708080919090E943253A8019701261B370B480B590B57FFFD
:2063200071C0C201B10120E030E040E050E00E94C352882321F4E0E070E060E044C0C201C9
:20634000B101A20191010E94EA517B018C01C601B5010E9463539B01AC01C801B7010E942F
:20636000A3557B018C016D857E858F8598899B01AC010E94A3559B01AC01C801B7010E94A3
:20638000E9517B018C0169857A858B859C859B01AC010E94A3559B01AC01C801B7010E944D
:2063A000EA517B018C01C201B10120E030E040E850E40E94A3559B01AC01C801B7010E94B2
:2063C000CA52E62F692F2E2F372F482F562FB901CA010E94B0520E943253AC01CB01DA0191
:2063E0003C014D0197FE03C06624772443016A147B048C049D0410F03501460120E030E096
:2064000040E050E09FB7F8946D897E89645B7F4FDB018C91AC54B040BE8BAD8B882321F595
:20642000FD01648A758A868A978A260D371D481D591D58962D933D934D935C935B972D81F1
:206440003E814F815885DC962D933D934D935C93DF97A05CBF4F29813A814B815C812D93B1
:206460003D934D935C9313979FBF66960FB6F894DEBF0FBECDBFCF91DF911F910F91FF9083
:20648000EF90DF90CF90BF90AF909F908F907F906F905F904F903F902F9008954F925F92FA
:2064A0007F928F929F92AF92BF92CF92DF92EF92FF920F931F93CF93DF9370904F0AC0E0E2
:2064C000D0E07DE4472E512C46C02097B1F18EA9882361F4849CF001859CF00D949CF00DC7
:2064E0001124E258FA4F86A9882339F1EAA0FBA00CA11DA16EA17FA188A599A5A801970175
:206500000E94CA525B016C01849CF001859CF00D949CF00D1124E258FA4F66A177A180A59C
:2065200091A5A80197010E94CA528B019C01CE01B601A5010E945C301EAA739480E17816E5
:2065400009F47724849CE001859CD00D949CD00D1124C258DA4F872C992487FC90948091F7
:206560004E0A90E08816990609F0AFCF2097F1F0EAA0FBA00CA11DA16EA17FA188A599A5DD
:20658000A80197010E94CA525B016C016DEC7CEC8CE49DE3A80197010E94CA528B019C015A
:2065A000CE01B601A5010E945C301EAADF91CF911F910F91FF90EF90DF90CF90BF90AF902F
:2065C0009F908F907F905F904F9008950E94A52E0E94F22D0E944E3208952F923F924F928B
:2065E0005F926F927F928F929F92AF92BF92CF92DF92EF92FF920F931F93DF93CF93CDB724
:20660000DEB7CE58D0400FB6F894DEBF0FBECDBF5C014B013A012901C557DF4FE882CB5883
:20662000D040C457DF4FF882CC58D040C357DF4F0883CD58D040C257DF4F1883CE58D04033
:20664000A996DFAECEAEA99780914E0A8F5F803109F480E0282F332727FD309538AB2FA7FA
:2066600005C00E94AD4A81E00E946A0F80914F0A90E04FA558A98417950799F3D5016D91DA
:206680007D918D919C91209121053091220540912305509124050E94A3550E947355E6965F
:2066A0006FAFE697E7967FAFE797E8968FAFE897E9969FAFE997F4016081718182819381AF
:2066C000209125053091260540912705509128050E94A3550E947355EA966FAFEA97EB9644
:2066E0007FAFEB97EC968FAFEC97ED969FAFED97D3016D917D918D919C9120912905309187
:206700002A0540912B0550912C050E94A3550E947355EE966FAFEE97EF967FAFEF97C158BA
:20672000DF4F8883CF57D040C058DF4F9883C058D040F201608171818281938120912D05A1
:2067400030912E0540912F05509130050E94A3550E947355CF57DF4F6883C158D040CE5799
:20676000DF4F7883C258D040CD57DF4F8883C358D040CC57DF4F9883C458D0408091790517
:2067800090917A05A0917B05B0917C05CF57DF4F288139814A815B81C158D04028173907E0
:2067A0004A075B0709F44DC06091B302E62FF0E0EE0FFF1FED54F54F808191810E94FB46FB
:2067C00020E030E04AE253E40E94C35288230CF038C08091500A882309F033C0CF57DF4F9A
:2067E000488159816A817B81C158D0404093790550937A0560937B0570937C05E5E5F4E09E
:20680000949108C08091C00085FFFCCF9093C600319694919923B1F7E9E7F4E0949108C0A1
:206820008091C00085FFFCCF9093C600319694919923B1F78091C00085FFFCCF8AE0809362
:20684000C60060912D0570912E0580912F059091300569A77AA78BA79CA78091790590912A
:206860007A05A0917B05B0917C05CF57DF4F288139814A815B81C158D040281B390B4A0BC3
:206880005B0BCA01B90157FF07C090958095709561957F4F8F4F9F4F0E9465537B018C01BE
:2068A00069A57AA58BA59CA520E030E04DEC53E40E94A3559B01AC01C801B7010E94D1548F
:2068C00018160CF033C0CF57DF4F488159816A817B81C158D0404093790550937A056093EE
:2068E0007B0570937C05E5E5F4E0949108C08091C00085FFFCCF9093C60031969491992358
:20690000B1F7EBE5F4E0949108C08091C00085FFFCCF9093C600319694919923B1F78091D4
:20692000C00085FFFCCF8AE08093C60080914E0A682F70E0A7967FAF6EAFA7978DE490E00E
